{
  "contractName": "ContentSharing",
  "abi": [
    {
      "anonymous": false,
      "inputs": [
        {
          "indexed": false,
          "internalType": "uint256",
          "name": "postId",
          "type": "uint256"
        },
        {
          "indexed": false,
          "internalType": "address",
          "name": "author",
          "type": "address"
        },
        {
          "indexed": false,
          "internalType": "string",
          "name": "content",
          "type": "string"
        },
        {
          "indexed": false,
          "internalType": "string",
          "name": "group",
          "type": "string"
        }
      ],
      "name": "PostCreated",
      "type": "event"
    },
    {
      "anonymous": false,
      "inputs": [
        {
          "indexed": false,
          "internalType": "uint256",
          "name": "postId",
          "type": "uint256"
        },
        {
          "indexed": false,
          "internalType": "address",
          "name": "flaggedBy",
          "type": "address"
        },
        {
          "indexed": false,
          "internalType": "uint256",
          "name": "flagCount",
          "type": "uint256"
        }
      ],
      "name": "PostFlagged",
      "type": "event"
    },
    {
      "anonymous": false,
      "inputs": [
        {
          "indexed": false,
          "internalType": "uint256",
          "name": "postId",
          "type": "uint256"
        }
      ],
      "name": "PostRemoved",
      "type": "event"
    },
    {
      "inputs": [],
      "name": "postCount",
      "outputs": [
        {
          "internalType": "uint256",
          "name": "",
          "type": "uint256"
        }
      ],
      "stateMutability": "view",
      "type": "function",
      "constant": true
    },
    {
      "inputs": [
        {
          "internalType": "string",
          "name": "_content",
          "type": "string"
        },
        {
          "internalType": "string",
          "name": "_group",
          "type": "string"
        }
      ],
      "name": "createPost",
      "outputs": [],
      "stateMutability": "nonpayable",
      "type": "function"
    },
    {
      "inputs": [
        {
          "internalType": "uint256",
          "name": "_postId",
          "type": "uint256"
        }
      ],
      "name": "flagPost",
      "outputs": [],
      "stateMutability": "nonpayable",
      "type": "function"
    },
    {
      "inputs": [
        {
          "internalType": "uint256",
          "name": "_postId",
          "type": "uint256"
        }
      ],
      "name": "getPost",
      "outputs": [
        {
          "internalType": "address",
          "name": "author",
          "type": "address"
        },
        {
          "internalType": "string",
          "name": "content",
          "type": "string"
        },
        {
          "internalType": "string",
          "name": "group",
          "type": "string"
        },
        {
          "internalType": "bool",
          "name": "removed",
          "type": "bool"
        },
        {
          "internalType": "uint256",
          "name": "flagCount",
          "type": "uint256"
        }
      ],
      "stateMutability": "view",
      "type": "function",
      "constant": true
    },
    {
      "inputs": [],
      "name": "getPostCount",
      "outputs": [
        {
          "internalType": "uint256",
          "name": "",
          "type": "uint256"
        }
      ],
      "stateMutability": "view",
      "type": "function",
      "constant": true
    }
  ],
  "bytecode": "0x608060405234801561001057600080fd5b50610d36806100206000396000f3fe608060405234801561001057600080fd5b50600436106100575760003560e01c806317906c2e1461005c578063392338f51461007a57806340731c2414610096578063bcc95407146100ca578063c8b472d9146100e8575b600080fd5b610064610104565b60405161007191906109f0565b60405180910390f35b610094600480360381019061008f9190610774565b61010a565b005b6100b060048036038101906100ab91906107e0565b610225565b6040516100c195949392919061092f565b60405180910390f35b6100d26103f7565b6040516100df91906109f0565b60405180910390f35b61010260048036038101906100fd91906107e0565b610401565b005b60015481565b600080600060015481526020019081526020016000209050338160000160006101000a81548173ffffffffffffffffffffffffffffffffffffffff021916908373ffffffffffffffffffffffffffffffffffffffff1602179055508281600101908051906020019061017d929190610654565b5081816002019080519060200190610196929190610654565b5060008160030160006101000a81548160ff02191690831515021790555060008160040181905550600160008154809291906101d190610c02565b91905055507f5475621b07408f75d49c828caa5aeacb3a5e98d3497e75730dc184677504401c600180546102059190610b12565b3385856040516102189493929190610a0b565b60405180910390a1505050565b60006060806000806001548610610271576040517f08c379a000000000000000000000000000000000000000000000000000000000815260040161026890610990565b60405180910390fd5b600080600088815260200190815260200160002090508060000160009054906101000a900473ffffffffffffffffffffffffffffffffffffffff1681600101826002018360030160009054906101000a900460ff1684600401548380546102d790610bd0565b80601f016020809104026020016040519081016040528092919081815260200182805461030390610bd0565b80156103505780601f1061032557610100808354040283529160200191610350565b820191906000526020600020905b81548152906001019060200180831161033357829003601f168201915b5050505050935082805461036390610bd0565b80601f016020809104026020016040519081016040528092919081815260200182805461038f90610bd0565b80156103dc5780601f106103b1576101008083540402835291602001916103dc565b820191906000526020600020905b8154815290600101906020018083116103bf57829003601f168201915b50505050509250955095509550955095505091939590929450565b6000600154905090565b6001548110610445576040517f08c379a000000000000000000000000000000000000000000000000000000000815260040161043c90610990565b60405180910390fd5b600080600083815260200190815260200160002090508060030160009054906101000a900460ff16156104ad576040517f08c379a00000000000000000000000000000000000000000000000000000000081526004016104a4906109b0565b60405180910390fd5b8060050160003373ffffffffffffffffffffffffffffffffffffffff1673ffffffffffffffffffffffffffffffffffffffff16815260200190815260200160002060009054906101000a900460ff161561053c576040517f08c379a0000000000000000000000000000000000000000000000000000000008152600401610533906109d0565b60405180910390fd5b60018160050160003373ffffffffffffffffffffffffffffffffffffffff1673ffffffffffffffffffffffffffffffffffffffff16815260200190815260200160002060006101000a81548160ff0219169083151502179055508060040160008154809291906105ab90610c02565b91905055507f3256f5c29eb6352dd4ee60398977bf94bfd3abc930ad2df29d833ffb090e4d6b823383600401546040516105e793929190610a5e565b60405180910390a160038160040154106106505760018160030160006101000a81548160ff0219169083151502179055507f4323787dc7b9146e99da5553dee506c8d881e5da3d09774f8b421274287532be8260405161064791906109f0565b60405180910390a15b5050565b82805461066090610bd0565b90600052602060002090601f01602090048101928261068257600085556106c9565b82601f1061069b57805160ff19168380011785556106c9565b828001600101855582156106c9579182015b828111156106c85782518255916020019190600101906106ad565b5b5090506106d691906106da565b5090565b5b808211156106f35760008160009055506001016106db565b5090565b600061070a61070584610ac6565b610a95565b90508281526020810184848401111561072257600080fd5b61072d848285610b8e565b509392505050565b600082601f83011261074657600080fd5b81356107568482602086016106f7565b91505092915050565b60008135905061076e81610ce9565b92915050565b6000806040838503121561078757600080fd5b600083013567ffffffffffffffff8111156107a157600080fd5b6107ad85828601610735565b925050602083013567ffffffffffffffff8111156107ca57600080fd5b6107d685828601610735565b9150509250929050565b6000602082840312156107f257600080fd5b60006108008482850161075f565b91505092915050565b61081281610b46565b82525050565b61082181610b58565b82525050565b600061083282610af6565b61083c8185610b01565b935061084c818560208601610b9d565b61085581610cd8565b840191505092915050565b600061086d600f83610b01565b91507f496e76616c696420706f737420494400000000000000000000000000000000006000830152602082019050919050565b60006108ad601483610b01565b91507f506f737420616c72656164792072656d6f7665640000000000000000000000006000830152602082019050919050565b60006108ed601983610b01565b91507f416c726561647920666c6167676564207468697320706f7374000000000000006000830152602082019050919050565b61092981610b84565b82525050565b600060a0820190506109446000830188610809565b81810360208301526109568187610827565b9050818103604083015261096a8186610827565b90506109796060830185610818565b6109866080830184610920565b9695505050505050565b600060208201905081810360008301526109a981610860565b9050919050565b600060208201905081810360008301526109c9816108a0565b9050919050565b600060208201905081810360008301526109e9816108e0565b9050919050565b6000602082019050610a056000830184610920565b92915050565b6000608082019050610a206000830187610920565b610a2d6020830186610809565b8181036040830152610a3f8185610827565b90508181036060830152610a538184610827565b905095945050505050565b6000606082019050610a736000830186610920565b610a806020830185610809565b610a8d6040830184610920565b949350505050565b6000604051905081810181811067ffffffffffffffff82111715610abc57610abb610ca9565b5b8060405250919050565b600067ffffffffffffffff821115610ae157610ae0610ca9565b5b601f19601f8301169050602081019050919050565b600081519050919050565b600082825260208201905092915050565b6000610b1d82610b84565b9150610b2883610b84565b925082821015610b3b57610b3a610c4b565b5b828203905092915050565b6000610b5182610b64565b9050919050565b60008115159050919050565b600073ffffffffffffffffffffffffffffffffffffffff82169050919050565b6000819050919050565b82818337600083830152505050565b60005b83811015610bbb578082015181840152602081019050610ba0565b83811115610bca576000848401525b50505050565b60006002820490506001821680610be857607f821691505b60208210811415610bfc57610bfb610c7a565b5b50919050565b6000610c0d82610b84565b91507fffffffffffffffffffffffffffffffffffffffffffffffffffffffffffffffff821415610c4057610c3f610c4b565b5b600182019050919050565b7f4e487b7100000000000000000000000000000000000000000000000000000000600052601160045260246000fd5b7f4e487b7100000000000000000000000000000000000000000000000000000000600052602260045260246000fd5b7f4e487b7100000000000000000000000000000000000000000000000000000000600052604160045260246000fd5b6000601f19601f8301169050919050565b610cf281610b84565b8114610cfd57600080fd5b5056fea264697066735822122010d410ec751c18c135118612468b637bae54bfa98be9299e89d944dfd00630ec64736f6c63430008000033",
  "immutableReferences": {},
  "source": "// SPDX-License-Identifier: MIT\r\npragma solidity ^0.8.0;\r\n\r\ncontract ContentSharing {\r\n\r\n    struct Post {\r\n        address author;\r\n        string content;\r\n        string group;\r\n        bool removed;\r\n        uint flagCount;\r\n        mapping(address => bool) flaggedBy;\r\n    }\r\n\r\n    mapping(uint => Post) private posts;\r\n    uint public postCount;\r\n\r\n    uint constant FLAG_THRESHOLD = 3;\r\n\r\n    event PostCreated(uint postId, address author, string content, string group);\r\n    event PostFlagged(uint postId, address flaggedBy, uint flagCount);\r\n    event PostRemoved(uint postId);\r\n\r\n    function createPost(string memory _content, string memory _group) public {\r\n        Post storage newPost = posts[postCount];\r\n        newPost.author = msg.sender;\r\n        newPost.content = _content;\r\n        newPost.group = _group;\r\n        newPost.removed = false;\r\n        newPost.flagCount = 0;\r\n        postCount++;\r\n\r\n        emit PostCreated(postCount - 1, msg.sender, _content, _group);\r\n    }\r\n\r\n    function flagPost(uint _postId) public {\r\n        require(_postId < postCount, \"Invalid post ID\");\r\n        Post storage post = posts[_postId];\r\n        require(!post.removed, \"Post already removed\");\r\n        require(!post.flaggedBy[msg.sender], \"Already flagged this post\");\r\n\r\n        post.flaggedBy[msg.sender] = true;\r\n        post.flagCount++;\r\n\r\n        emit PostFlagged(_postId, msg.sender, post.flagCount);\r\n\r\n        if(post.flagCount >= FLAG_THRESHOLD) {\r\n            post.removed = true;\r\n            emit PostRemoved(_postId);\r\n        }\r\n    }\r\n\r\n    function getPost(uint _postId) public view returns (\r\n        address author,\r\n        string memory content,\r\n        string memory group,\r\n        bool removed,\r\n        uint flagCount\r\n    ) {\r\n        require(_postId < postCount, \"Invalid post ID\");\r\n        Post storage post = posts[_postId];\r\n        return (\r\n            post.author,\r\n            post.content,\r\n            post.group,\r\n            post.removed,\r\n            post.flagCount\r\n        );\r\n    }\r\n\r\n    function getPostCount() public view returns (uint) {\r\n        return postCount;\r\n    }\r\n}\r\n",
  "sourcePath": "C:\\Users\\itzja\\OneDrive\\Desktop\\web3\\contentsharing-dapp\\contracts\\ContentSharing.sol",
  "compiler": {
    "name": "solc",
    "version": "0.8.0+commit.c7dfd78e.Emscripten.clang"
  },
  "schemaVersion": "3.4.16",
  "updatedAt": "2025-05-26T13:09:00.616Z",
  "networkType": "ethereum",
  "devdoc": {
    "kind": "dev",
    "methods": {},
    "version": 1
  },
  "userdoc": {
    "kind": "user",
    "methods": {},
    "version": 1
  }
}