{
  "contractName": "ContentSharing",
  "abi": [
    {
      "inputs": [],
      "name": "flagThreshold",
      "outputs": [
        {
          "internalType": "uint256",
          "name": "",
          "type": "uint256"
        }
      ],
      "stateMutability": "view",
      "type": "function",
      "constant": true
    },
    {
      "inputs": [
        {
          "internalType": "uint256",
          "name": "",
          "type": "uint256"
        },
        {
          "internalType": "address",
          "name": "",
          "type": "address"
        }
      ],
      "name": "hasFlagged",
      "outputs": [
        {
          "internalType": "bool",
          "name": "",
          "type": "bool"
        }
      ],
      "stateMutability": "view",
      "type": "function",
      "constant": true
    },
    {
      "inputs": [],
      "name": "postCount",
      "outputs": [
        {
          "internalType": "uint256",
          "name": "",
          "type": "uint256"
        }
      ],
      "stateMutability": "view",
      "type": "function",
      "constant": true
    },
    {
      "inputs": [
        {
          "internalType": "uint256",
          "name": "",
          "type": "uint256"
        }
      ],
      "name": "posts",
      "outputs": [
        {
          "internalType": "address",
          "name": "author",
          "type": "address"
        },
        {
          "internalType": "string",
          "name": "content",
          "type": "string"
        },
        {
          "internalType": "uint256",
          "name": "flags",
          "type": "uint256"
        },
        {
          "internalType": "bool",
          "name": "removed",
          "type": "bool"
        }
      ],
      "stateMutability": "view",
      "type": "function",
      "constant": true
    },
    {
      "inputs": [
        {
          "internalType": "string",
          "name": "_content",
          "type": "string"
        }
      ],
      "name": "createPost",
      "outputs": [],
      "stateMutability": "nonpayable",
      "type": "function"
    },
    {
      "inputs": [],
      "name": "getPostCount",
      "outputs": [
        {
          "internalType": "uint256",
          "name": "",
          "type": "uint256"
        }
      ],
      "stateMutability": "view",
      "type": "function",
      "constant": true
    },
    {
      "inputs": [
        {
          "internalType": "uint256",
          "name": "_postId",
          "type": "uint256"
        }
      ],
      "name": "flagPost",
      "outputs": [],
      "stateMutability": "nonpayable",
      "type": "function"
    }
  ],
  "bytecode": "0x60806040526003805534801561001457600080fd5b50610b68806100246000396000f3fe608060405234801561001057600080fd5b506004361061007d5760003560e01c8063bcc954071161005b578063bcc95407146100f1578063c7303c611461010f578063c8b472d91461012b578063d4afceb7146101475761007d565b80630b1e7f831461008257806317906c2e146100b5578063242ba5cc146100d3575b600080fd5b61009c600480360381019061009791906106d7565b610177565b6040516100ac9493929190610822565b60405180910390f35b6100bd61025c565b6040516100ca91906108c9565b60405180910390f35b6100db610262565b6040516100e891906108c9565b60405180910390f35b6100f9610268565b60405161010691906108c9565b60405180910390f35b61012960048036038101906101249190610696565b610272565b005b610145600480360381019061014091906106d7565b61036d565b005b610161600480360381019061015c9190610700565b610532565b60405161016e919061086e565b60405180910390f35b60006020528060005260406000206000915090508060000160009054906101000a900473ffffffffffffffffffffffffffffffffffffffff16908060010180546101c0906109eb565b80601f01602080910402602001604051908101604052809291908181526020018280546101ec906109eb565b80156102395780601f1061020e57610100808354040283529160200191610239565b820191906000526020600020905b81548152906001019060200180831161021c57829003601f168201915b5050505050908060020154908060030160009054906101000a900460ff16905084565b60025481565b60035481565b6000600254905090565b60405180608001604052803373ffffffffffffffffffffffffffffffffffffffff1681526020018281526020016000815260200160001515815250600080600254815260200190815260200160002060008201518160000160006101000a81548173ffffffffffffffffffffffffffffffffffffffff021916908373ffffffffffffffffffffffffffffffffffffffff1602179055506020820151816001019080519060200190610324929190610561565b506040820151816002015560608201518160030160006101000a81548160ff0219169083151502179055509050506002600081548092919061036590610a1d565b919050555050565b60025481106103b1576040517f08c379a00000000000000000000000000000000000000000000000000000000081526004016103a890610889565b60405180910390fd5b6001600082815260200190815260200160002060003373ffffffffffffffffffffffffffffffffffffffff1673ffffffffffffffffffffffffffffffffffffffff16815260200190815260200160002060009054906101000a900460ff161561044f576040517f08c379a0000000000000000000000000000000000000000000000000000000008152600401610446906108a9565b60405180910390fd5b600180600083815260200190815260200160002060003373ffffffffffffffffffffffffffffffffffffffff1673ffffffffffffffffffffffffffffffffffffffff16815260200190815260200160002060006101000a81548160ff02191690831515021790555060008082815260200190815260200160002060020160008154809291906104dd90610a1d565b9190505550600354600080838152602001908152602001600020600201541061052f57600160008083815260200190815260200160002060030160006101000a81548160ff0219169083151502179055505b50565b60016020528160005260406000206020528060005260406000206000915091509054906101000a900460ff1681565b82805461056d906109eb565b90600052602060002090601f01602090048101928261058f57600085556105d6565b82601f106105a857805160ff19168380011785556105d6565b828001600101855582156105d6579182015b828111156105d55782518255916020019190600101906105ba565b5b5090506105e391906105e7565b5090565b5b808211156106005760008160009055506001016105e8565b5090565b600061061761061284610915565b6108e4565b90508281526020810184848401111561062f57600080fd5b61063a8482856109a9565b509392505050565b60008135905061065181610b04565b92915050565b600082601f83011261066857600080fd5b8135610678848260208601610604565b91505092915050565b60008135905061069081610b1b565b92915050565b6000602082840312156106a857600080fd5b600082013567ffffffffffffffff8111156106c257600080fd5b6106ce84828501610657565b91505092915050565b6000602082840312156106e957600080fd5b60006106f784828501610681565b91505092915050565b6000806040838503121561071357600080fd5b600061072185828601610681565b925050602061073285828601610642565b9150509250929050565b61074581610961565b82525050565b61075481610973565b82525050565b600061076582610945565b61076f8185610950565b935061077f8185602086016109b8565b61078881610af3565b840191505092915050565b60006107a0600f83610950565b91507f496e76616c696420706f737420494400000000000000000000000000000000006000830152602082019050919050565b60006107e0600f83610950565b91507f416c726561647920666c616767656400000000000000000000000000000000006000830152602082019050919050565b61081c8161099f565b82525050565b6000608082019050610837600083018761073c565b8181036020830152610849818661075a565b90506108586040830185610813565b610865606083018461074b565b95945050505050565b6000602082019050610883600083018461074b565b92915050565b600060208201905081810360008301526108a281610793565b9050919050565b600060208201905081810360008301526108c2816107d3565b9050919050565b60006020820190506108de6000830184610813565b92915050565b6000604051905081810181811067ffffffffffffffff8211171561090b5761090a610ac4565b5b8060405250919050565b600067ffffffffffffffff8211156109305761092f610ac4565b5b601f19601f8301169050602081019050919050565b600081519050919050565b600082825260208201905092915050565b600061096c8261097f565b9050919050565b60008115159050919050565b600073ffffffffffffffffffffffffffffffffffffffff82169050919050565b6000819050919050565b82818337600083830152505050565b60005b838110156109d65780820151818401526020810190506109bb565b838111156109e5576000848401525b50505050565b60006002820490506001821680610a0357607f821691505b60208210811415610a1757610a16610a95565b5b50919050565b6000610a288261099f565b91507fffffffffffffffffffffffffffffffffffffffffffffffffffffffffffffffff821415610a5b57610a5a610a66565b5b600182019050919050565b7f4e487b7100000000000000000000000000000000000000000000000000000000600052601160045260246000fd5b7f4e487b7100000000000000000000000000000000000000000000000000000000600052602260045260246000fd5b7f4e487b7100000000000000000000000000000000000000000000000000000000600052604160045260246000fd5b6000601f19601f8301169050919050565b610b0d81610961565b8114610b1857600080fd5b50565b610b248161099f565b8114610b2f57600080fd5b5056fea26469706673582212205e18cf63bbdc4bc0c6dd4307b700b4762977517cf91c7551eb28dc74d171711764736f6c63430008000033",
  "immutableReferences": {},
  "source": "// SPDX-License-Identifier: MIT\r\npragma solidity ^0.8.0;\r\n\r\ncontract ContentSharing {\r\n    struct Post {\r\n        address author;\r\n        string content;\r\n        uint flags;\r\n        bool removed;\r\n    }\r\n\r\n    mapping(uint => Post) public posts;\r\n    mapping(uint => mapping(address => bool)) public hasFlagged;\r\n    uint public postCount;\r\n    uint public flagThreshold = 3;\r\n\r\n    function createPost(string memory _content) public {\r\n        posts[postCount] = Post(msg.sender, _content, 0, false);\r\n        postCount++;\r\n    }\r\n\r\n    function getPostCount() public view returns (uint) {\r\n        return postCount;\r\n    }\r\n\r\n    function flagPost(uint _postId) public {\r\n        require(_postId < postCount, \"Invalid post ID\");\r\n        require(!hasFlagged[_postId][msg.sender], \"Already flagged\");\r\n\r\n        hasFlagged[_postId][msg.sender] = true;\r\n        posts[_postId].flags++;\r\n\r\n        if (posts[_postId].flags >= flagThreshold) {\r\n            posts[_postId].removed = true;\r\n        }\r\n    }\r\n}\r\n",
  "sourcePath": "C:\\Users\\itzja\\OneDrive\\Desktop\\web3\\contentsharing-dapp\\contracts\\ContentSharing.sol",
  "compiler": {
    "name": "solc",
    "version": "0.8.0+commit.c7dfd78e.Emscripten.clang"
  },
  "schemaVersion": "3.4.16",
  "updatedAt": "2025-05-25T16:40:41.755Z",
  "networkType": "ethereum",
  "devdoc": {
    "kind": "dev",
    "methods": {},
    "version": 1
  },
  "userdoc": {
    "kind": "user",
    "methods": {},
    "version": 1
  }
}