{
  "contractName": "ContentSharing",
  "abi": [
    {
      "anonymous": false,
      "inputs": [
        {
          "indexed": true,
          "internalType": "address",
          "name": "author",
          "type": "address"
        },
        {
          "indexed": false,
          "internalType": "string",
          "name": "content",
          "type": "string"
        }
      ],
      "name": "NewPost",
      "type": "event"
    },
    {
      "inputs": [
        {
          "internalType": "uint256",
          "name": "",
          "type": "uint256"
        }
      ],
      "name": "posts",
      "outputs": [
        {
          "internalType": "address",
          "name": "author",
          "type": "address"
        },
        {
          "internalType": "string",
          "name": "content",
          "type": "string"
        }
      ],
      "stateMutability": "view",
      "type": "function",
      "constant": true
    },
    {
      "inputs": [
        {
          "internalType": "string",
          "name": "content",
          "type": "string"
        }
      ],
      "name": "createPost",
      "outputs": [],
      "stateMutability": "nonpayable",
      "type": "function"
    },
    {
      "inputs": [],
      "name": "getPostCount",
      "outputs": [
        {
          "internalType": "uint256",
          "name": "",
          "type": "uint256"
        }
      ],
      "stateMutability": "view",
      "type": "function",
      "constant": true
    }
  ],
  "bytecode": "0x608060405234801561001057600080fd5b506106dd806100206000396000f3fe608060405234801561001057600080fd5b50600436106100415760003560e01c80630b1e7f8314610046578063bcc9540714610077578063c7303c6114610095575b600080fd5b610060600480360381019061005b9190610407565b6100b1565b60405161006e929190610487565b60405180910390f35b61007f61018d565b60405161008c91906104d9565b60405180910390f35b6100af60048036038101906100aa91906103c6565b610199565b005b600081815481106100c157600080fd5b90600052602060002090600202016000915090508060000160009054906101000a900473ffffffffffffffffffffffffffffffffffffffff169080600101805461010a906105ef565b80601f0160208091040260200160405190810160405280929190818152602001828054610136906105ef565b80156101835780601f1061015857610100808354040283529160200191610183565b820191906000526020600020905b81548152906001019060200180831161016657829003601f168201915b5050505050905082565b60008080549050905090565b600060405180604001604052803373ffffffffffffffffffffffffffffffffffffffff16815260200183815250908060018154018082558091505060019003906000526020600020906002020160009091909190915060008201518160000160006101000a81548173ffffffffffffffffffffffffffffffffffffffff021916908373ffffffffffffffffffffffffffffffffffffffff16021790555060208201518160010190805190602001906102529291906102a6565b5050503373ffffffffffffffffffffffffffffffffffffffff167f6babe127d1599cad37c523a2dd29c5d02acd7132a883e378a2d9b42ec75a1fa98260405161029b91906104b7565b60405180910390a250565b8280546102b2906105ef565b90600052602060002090601f0160209004810192826102d4576000855561031b565b82601f106102ed57805160ff191683800117855561031b565b8280016001018555821561031b579182015b8281111561031a5782518255916020019190600101906102ff565b5b509050610328919061032c565b5090565b5b8082111561034557600081600090555060010161032d565b5090565b600061035c61035784610525565b6104f4565b90508281526020810184848401111561037457600080fd5b61037f8482856105ad565b509392505050565b600082601f83011261039857600080fd5b81356103a8848260208601610349565b91505092915050565b6000813590506103c081610690565b92915050565b6000602082840312156103d857600080fd5b600082013567ffffffffffffffff8111156103f257600080fd5b6103fe84828501610387565b91505092915050565b60006020828403121561041957600080fd5b6000610427848285016103b1565b91505092915050565b61043981610571565b82525050565b600061044a82610555565b6104548185610560565b93506104648185602086016105bc565b61046d8161067f565b840191505092915050565b610481816105a3565b82525050565b600060408201905061049c6000830185610430565b81810360208301526104ae818461043f565b90509392505050565b600060208201905081810360008301526104d1818461043f565b905092915050565b60006020820190506104ee6000830184610478565b92915050565b6000604051905081810181811067ffffffffffffffff8211171561051b5761051a610650565b5b8060405250919050565b600067ffffffffffffffff8211156105405761053f610650565b5b601f19601f8301169050602081019050919050565b600081519050919050565b600082825260208201905092915050565b600061057c82610583565b9050919050565b600073ffffffffffffffffffffffffffffffffffffffff82169050919050565b6000819050919050565b82818337600083830152505050565b60005b838110156105da5780820151818401526020810190506105bf565b838111156105e9576000848401525b50505050565b6000600282049050600182168061060757607f821691505b6020821081141561061b5761061a610621565b5b50919050565b7f4e487b7100000000000000000000000000000000000000000000000000000000600052602260045260246000fd5b7f4e487b7100000000000000000000000000000000000000000000000000000000600052604160045260246000fd5b6000601f19601f8301169050919050565b610699816105a3565b81146106a457600080fd5b5056fea264697066735822122002adcd951ef022bb30448e35ad000e9f3747b6604208825821d16adbc7f64a1864736f6c63430008000033",
  "immutableReferences": {},
  "source": "// SPDX-License-Identifier: MIT\r\npragma solidity ^0.8.0;\r\n\r\ncontract ContentSharing {\r\n    struct Post {\r\n        address author;\r\n        string content;\r\n    }\r\n\r\n    Post[] public posts;\r\n\r\n    event NewPost(address indexed author, string content);\r\n\r\n    function createPost(string memory content) public {\r\n        posts.push(Post(msg.sender, content));\r\n        emit NewPost(msg.sender, content);\r\n    }\r\n\r\n    function getPostCount() public view returns (uint) {\r\n        return posts.length;\r\n    }\r\n}\r\n",
  "sourcePath": "C:\\Users\\itzja\\OneDrive\\Desktop\\web3\\contentsharing-dapp\\contracts\\ContentSharing.sol",
  "compiler": {
    "name": "solc",
    "version": "0.8.0+commit.c7dfd78e.Emscripten.clang"
  },
  "schemaVersion": "3.4.16",
  "updatedAt": "2025-05-25T16:23:54.269Z",
  "networkType": "ethereum",
  "devdoc": {
    "kind": "dev",
    "methods": {},
    "version": 1
  },
  "userdoc": {
    "kind": "user",
    "methods": {},
    "version": 1
  }
}